{
  "abi": [
    {
      "inputs": [
        {
          "internalType": "uint256",
          "name": "_days",
          "type": "uint256"
        }
      ],
      "stateMutability": "nonpayable",
      "type": "constructor"
    },
    {
      "anonymous": false,
      "inputs": [
        {
          "indexed": false,
          "internalType": "address",
          "name": "owner",
          "type": "address"
        },
        {
          "indexed": false,
          "internalType": "string",
          "name": "aboutProposal",
          "type": "string"
        },
        {
          "indexed": false,
          "internalType": "uint256",
          "name": "StartTime",
          "type": "uint256"
        }
      ],
      "name": "ProposalSubmitted",
      "type": "event"
    },
    {
      "anonymous": false,
      "inputs": [
        {
          "indexed": false,
          "internalType": "uint256",
          "name": "_endVoting",
          "type": "uint256"
        }
      ],
      "name": "endVotingChange",
      "type": "event"
    },
    {
      "anonymous": false,
      "inputs": [
        {
          "indexed": false,
          "internalType": "address",
          "name": "voter",
          "type": "address"
        },
        {
          "indexed": false,
          "internalType": "enum voting.VOTE",
          "name": "choice",
          "type": "uint8"
        }
      ],
      "name": "voteMade",
      "type": "event"
    },
    {
      "inputs": [
        {
          "internalType": "uint256",
          "name": "_days",
          "type": "uint256"
        }
      ],
      "name": "changeEndVoting",
      "outputs": [],
      "stateMutability": "nonpayable",
      "type": "function"
    },
    {
      "inputs": [
        {
          "internalType": "uint256",
          "name": "_proposalID",
          "type": "uint256"
        }
      ],
      "name": "compileVotes",
      "outputs": [
        {
          "internalType": "uint256",
          "name": "acceptedVotes",
          "type": "uint256"
        },
        {
          "internalType": "uint256",
          "name": "rejectedVotes",
          "type": "uint256"
        }
      ],
      "stateMutability": "view",
      "type": "function"
    },
    {
      "inputs": [
        {
          "internalType": "uint256",
          "name": "timestamp",
          "type": "uint256"
        }
      ],
      "name": "getDay",
      "outputs": [
        {
          "internalType": "uint8",
          "name": "",
          "type": "uint8"
        }
      ],
      "stateMutability": "pure",
      "type": "function"
    },
    {
      "inputs": [
        {
          "internalType": "uint8",
          "name": "month",
          "type": "uint8"
        },
        {
          "internalType": "uint16",
          "name": "year",
          "type": "uint16"
        }
      ],
      "name": "getDaysInMonth",
      "outputs": [
        {
          "internalType": "uint8",
          "name": "",
          "type": "uint8"
        }
      ],
      "stateMutability": "pure",
      "type": "function"
    },
    {
      "inputs": [
        {
          "internalType": "uint256",
          "name": "timestamp",
          "type": "uint256"
        }
      ],
      "name": "getHour",
      "outputs": [
        {
          "internalType": "uint8",
          "name": "",
          "type": "uint8"
        }
      ],
      "stateMutability": "pure",
      "type": "function"
    },
    {
      "inputs": [
        {
          "internalType": "uint256",
          "name": "timestamp",
          "type": "uint256"
        }
      ],
      "name": "getMinute",
      "outputs": [
        {
          "internalType": "uint8",
          "name": "",
          "type": "uint8"
        }
      ],
      "stateMutability": "pure",
      "type": "function"
    },
    {
      "inputs": [
        {
          "internalType": "uint256",
          "name": "timestamp",
          "type": "uint256"
        }
      ],
      "name": "getMonth",
      "outputs": [
        {
          "internalType": "uint8",
          "name": "",
          "type": "uint8"
        }
      ],
      "stateMutability": "pure",
      "type": "function"
    },
    {
      "inputs": [
        {
          "internalType": "uint256",
          "name": "_proposalID",
          "type": "uint256"
        }
      ],
      "name": "getProposalDetails",
      "outputs": [
        {
          "internalType": "address",
          "name": "owner",
          "type": "address"
        },
        {
          "internalType": "string",
          "name": "aboutProposal",
          "type": "string"
        },
        {
          "internalType": "bool",
          "name": "isCompleted",
          "type": "bool"
        },
        {
          "internalType": "uint256",
          "name": "totalVotes",
          "type": "uint256"
        }
      ],
      "stateMutability": "view",
      "type": "function"
    },
    {
      "inputs": [
        {
          "internalType": "uint256",
          "name": "timestamp",
          "type": "uint256"
        }
      ],
      "name": "getSecond",
      "outputs": [
        {
          "internalType": "uint8",
          "name": "",
          "type": "uint8"
        }
      ],
      "stateMutability": "pure",
      "type": "function"
    },
    {
      "inputs": [
        {
          "internalType": "uint256",
          "name": "timestamp",
          "type": "uint256"
        }
      ],
      "name": "getWeekday",
      "outputs": [
        {
          "internalType": "uint8",
          "name": "",
          "type": "uint8"
        }
      ],
      "stateMutability": "pure",
      "type": "function"
    },
    {
      "inputs": [
        {
          "internalType": "uint256",
          "name": "timestamp",
          "type": "uint256"
        }
      ],
      "name": "getYear",
      "outputs": [
        {
          "internalType": "uint16",
          "name": "",
          "type": "uint16"
        }
      ],
      "stateMutability": "pure",
      "type": "function"
    },
    {
      "inputs": [
        {
          "internalType": "uint16",
          "name": "year",
          "type": "uint16"
        }
      ],
      "name": "isLeapYear",
      "outputs": [
        {
          "internalType": "bool",
          "name": "",
          "type": "bool"
        }
      ],
      "stateMutability": "pure",
      "type": "function"
    },
    {
      "inputs": [
        {
          "internalType": "uint256",
          "name": "year",
          "type": "uint256"
        }
      ],
      "name": "leapYearsBefore",
      "outputs": [
        {
          "internalType": "uint256",
          "name": "",
          "type": "uint256"
        }
      ],
      "stateMutability": "pure",
      "type": "function"
    },
    {
      "inputs": [
        {
          "internalType": "string",
          "name": "_aboutProposal",
          "type": "string"
        }
      ],
      "name": "submitProposal",
      "outputs": [],
      "stateMutability": "nonpayable",
      "type": "function"
    },
    {
      "inputs": [
        {
          "internalType": "uint16",
          "name": "year",
          "type": "uint16"
        },
        {
          "internalType": "uint8",
          "name": "month",
          "type": "uint8"
        },
        {
          "internalType": "uint8",
          "name": "day",
          "type": "uint8"
        },
        {
          "internalType": "uint8",
          "name": "hour",
          "type": "uint8"
        },
        {
          "internalType": "uint8",
          "name": "minute",
          "type": "uint8"
        }
      ],
      "name": "toTimestamp",
      "outputs": [
        {
          "internalType": "uint256",
          "name": "timestamp",
          "type": "uint256"
        }
      ],
      "stateMutability": "pure",
      "type": "function"
    },
    {
      "inputs": [
        {
          "internalType": "uint16",
          "name": "year",
          "type": "uint16"
        },
        {
          "internalType": "uint8",
          "name": "month",
          "type": "uint8"
        },
        {
          "internalType": "uint8",
          "name": "day",
          "type": "uint8"
        },
        {
          "internalType": "uint8",
          "name": "hour",
          "type": "uint8"
        }
      ],
      "name": "toTimestamp",
      "outputs": [
        {
          "internalType": "uint256",
          "name": "timestamp",
          "type": "uint256"
        }
      ],
      "stateMutability": "pure",
      "type": "function"
    },
    {
      "inputs": [
        {
          "internalType": "uint16",
          "name": "year",
          "type": "uint16"
        },
        {
          "internalType": "uint8",
          "name": "month",
          "type": "uint8"
        },
        {
          "internalType": "uint8",
          "name": "day",
          "type": "uint8"
        }
      ],
      "name": "toTimestamp",
      "outputs": [
        {
          "internalType": "uint256",
          "name": "timestamp",
          "type": "uint256"
        }
      ],
      "stateMutability": "pure",
      "type": "function"
    },
    {
      "inputs": [
        {
          "internalType": "uint16",
          "name": "year",
          "type": "uint16"
        },
        {
          "internalType": "uint8",
          "name": "month",
          "type": "uint8"
        },
        {
          "internalType": "uint8",
          "name": "day",
          "type": "uint8"
        },
        {
          "internalType": "uint8",
          "name": "hour",
          "type": "uint8"
        },
        {
          "internalType": "uint8",
          "name": "minute",
          "type": "uint8"
        },
        {
          "internalType": "uint8",
          "name": "second",
          "type": "uint8"
        }
      ],
      "name": "toTimestamp",
      "outputs": [
        {
          "internalType": "uint256",
          "name": "timestamp",
          "type": "uint256"
        }
      ],
      "stateMutability": "pure",
      "type": "function"
    },
    {
      "inputs": [
        {
          "internalType": "uint256",
          "name": "_proposalID",
          "type": "uint256"
        },
        {
          "internalType": "enum voting.VOTE",
          "name": "_vote",
          "type": "uint8"
        }
      ],
      "name": "vote",
      "outputs": [],
      "stateMutability": "nonpayable",
      "type": "function"
    },
    {
      "inputs": [
        {
          "internalType": "uint256",
          "name": "_proposalID",
          "type": "uint256"
        }
      ],
      "name": "voteCompleted",
      "outputs": [
        {
          "internalType": "bool",
          "name": "complete",
          "type": "bool"
        }
      ],
      "stateMutability": "nonpayable",
      "type": "function"
    }
  ],
  "bytecode": {
    "object": "0x6080604052600160045534801561001557600080fd5b506040516116083803806116088339810160408190526100349161004a565b6100416201518082610063565b60035550610090565b60006020828403121561005c57600080fd5b5051919050565b600081600019048311821515161561008b57634e487b7160e01b600052601160045260246000fd5b500290565b6115698061009f6000396000f3fe608060405234801561001057600080fd5b506004361061012c5760003560e01c80639054bdec116100ad578063a6f0e57711610071578063a6f0e577146102c1578063b1999937146102d4578063b238ad0e146102e7578063d10213c1146102fa578063fa93f8831461030d57600080fd5b80639054bdec1461023f57806392d6631314610252578063943e821614610278578063960ea4ed1461028b578063a324ad24146102ae57600080fd5b806362ba9687116100f457806362ba9687146101d257806365c72840146101f35780637f791833146102065780638aa001fc146102195780638c8d98a01461022c57600080fd5b8063373d6d5e146101315780633b4d01a7146101465780633e239e1a146101725780634ac1ad78146101975780635c1d671b146101aa575b600080fd5b61014461013f366004610e9e565b610320565b005b610159610154366004610f4f565b610455565b6040516101699493929190610fae565b60405180910390f35b610185610180366004610f4f565b61052a565b60405160ff9091168152602001610169565b6101856101a5366004610f4f565b610554565b6101bd6101b8366004610f4f565b610570565b60408051928352602083019190915201610169565b6101e56101e0366004611008565b610616565b604051908152602001610169565b610185610201366004610f4f565b610631565b6101e561021436600461106d565b610646565b610185610227366004610f4f565b610660565b6101e561023a3660046110c1565b61066d565b6101e561024d366004611104565b610687565b610265610260366004610f4f565b610838565b60405161ffff9091168152602001610169565b610144610286366004611178565b610928565b61029e610299366004610f4f565b610a74565b6040519015158152602001610169565b6101856102bc366004610f4f565b610ab1565b61029e6102cf3660046111ac565b610ac6565b6101e56102e2366004610f4f565b610b25565b6101856102f53660046111ce565b610b6a565b610144610308366004610f4f565b610c31565b61018561031b366004610f4f565b610c73565b60028054600090815260016020819052604080832080546001600160a01b031916331790559254825291902001610357828261128a565b50600280546000908152600160205260408082204290840155600354835483529120909101546103879190611360565b60028054600090815260016020526040808220600390810194909455915481522001546103b5904290611373565b6002805460009081526001602052604080822060050193909355815481529190912060038101549101541015610402576002546000908152600160205260409020600401805460ff191690555b6002805490600061041283611386565b91905055507f9b8fe1cd55a87b8f5eaa48960ac278de3e998ca69ab086083cae48e7e464500e33824260405161044a9392919061139f565b60405180910390a150565b60008181526001602081905260408220805460048201546006830154929093018054606094869485946001600160a01b0316939260ff90921691839061049a90611201565b80601f01602080910402602001604051908101604052809291908181526020018280546104c690611201565b80156105135780601f106104e857610100808354040283529160200191610513565b820191906000526020600020905b8154815290600101906020018083116104f657829003601f168201915b50979d939c50949a50929850909650505050505050565b60006018603c61053a81856113e9565b61054491906113e9565b61054e91906113fd565b92915050565b6000600761056562015180846113e9565b610544906004611360565b6000808060015b60008581526001602052604090206006015481116105eb576000858152600160208181526040808420338552600701909152822054600160a01b900460ff16908111156105c6576105c6611411565b036105d957816105d581611386565b9250505b806105e381611386565b915050610577565b50600084815260016020526040902060060154909250829061060e908290611373565b915050915091565b600061062786868686866000610687565b9695505050505050565b600061063c82610c81565b6040015192915050565b600061065785858585600080610687565b95945050505050565b600061054e603c836113fd565b600061067f8484846000806000610687565b949350505050565b60006107b25b8761ffff168161ffff1610156106e3576106a681610ac6565b156106c0576106b96301e2850083611360565b91506106d1565b6106ce6301e1338083611360565b91505b806106db81611427565b91505061068d565b6106eb610e69565b601f81526106f889610ac6565b1561070957601d6020820152610711565b601c60208201525b601f60408201819052601e606083018190526080830182905260a0830181905260c0830182905260e0830182905261010083018190526101208301829052610140830152610160820152600191505b8760ff168261ffff1610156107c2578061077b60018461145e565b61ffff16600c811061078f5761078f611448565b60200201516107a49060ff1662015180611480565b6107ae9084611360565b9250816107ba81611427565b925050610760565b6107cd60018861149f565b6107dd9060ff1662015180611480565b6107e79084611360565b92506107f860ff8716610e10611480565b6108029084611360565b925061081260ff8616603c611480565b61081c9084611360565b925061082b60ff851684611360565b9998505050505050505050565b600080808061084b6301e13380866113e9565b610857906107b2611360565b91506108646107b2610b25565b6108718361ffff16610b25565b61087b9190611373565b905061088b816301e28500611480565b6108959084611360565b9250806108a46107b28461145e565b61ffff166108b29190611373565b6108c0906301e13380611480565b6108ca9084611360565b92505b84831115610920576108e36102cf60018461145e565b156108fd576108f66301e2850084611373565b925061090e565b61090b6301e1338084611373565b92505b61091960018361145e565b91506108cd565b509392505050565b61093182610a74565b1561093b57600080fd5b60008281526001602081815260408084203385526007018252808420909201905290205460ff161561096c57600080fd5b600082815260016020818152604080842033808652600790910190925290922080546001600160a01b03198116841782558493919260ff60a01b199092166001600160a81b03199091161790600160a01b9084908111156109cf576109cf611411565b02179055506000828152600160208181526040808420338552600701825280842083019091528220805460ff191690911790556004805491610a1083611386565b90915550506000828152600160205260408120600601805491610a3283611386565b91905055507ff0b626ae56a9592957f650ed356bb4f8ed2e11cfdd90ac9c3abf63376899e6313382604051610a689291906114b8565b60405180910390a15050565b6000818152600160205260408120600301544210610aac57506000818152600160208190526040909120600401805460ff1916821790555b919050565b6000610abc82610c81565b6020015192915050565b6000610ad36004836114f3565b61ffff1615610ae457506000919050565b610aef6064836114f3565b61ffff1615610b0057506001919050565b610b0c610190836114f3565b61ffff1615610b1d57506000919050565b506001919050565b6000610b32600183611373565b9150610b40610190836113e9565b610b4b6064846113e9565b610b566004856113e9565b610b609190611373565b61054e9190611360565b60008260ff1660011480610b8157508260ff166003145b80610b8f57508260ff166005145b80610b9d57508260ff166007145b80610bab57508260ff166008145b80610bb957508260ff16600a145b80610bc757508260ff16600c145b15610bd45750601f61054e565b8260ff1660041480610be957508260ff166006145b80610bf757508260ff166009145b80610c0557508260ff16600b145b15610c125750601e61054e565b610c1b82610ac6565b15610c285750601d61054e565b50601c92915050565b610c3e6201518082611480565b60038190556040519081527f4d799aaf62044d32f2bb856735e0baec66e70ae376886d9d7cc9de8dfe531a869060200161044a565b6000603c61054481846113e9565b6040805160e081018252600080825260208201819052918101829052606081018290526080810182905260a0810182905260c08101829052908080610cc585610838565b61ffff168452610cd66107b2610b25565b8451610ce59061ffff16610b25565b610cef9190611373565b9150610cff826301e28500611480565b610d099084611360565b9250816107b28560000151610d1e919061145e565b61ffff16610d2c9190611373565b610d3a906301e13380611480565b610d449084611360565b92506000600191505b600c8260ff1611610db557610d66828660000151610b6a565b610d769060ff1662015180611480565b905085610d838583611360565b1115610d975760ff82166020860152610db5565b610da18185611360565b935081610dad81611514565b925050610d4d565b600191505b610dcc85602001518660000151610b6a565b60ff168260ff1611610e1b5785610de68562015180611360565b1115610dfa5760ff82166040860152610e1b565b610e076201518085611360565b935081610e1381611514565b925050610dba565b610e248661052a565b60ff166060860152610e3586610c73565b60ff166080860152610e4686610660565b60ff1660a0860152610e5786610554565b60ff1660c08601525092949350505050565b604051806101800160405280600c906020820280368337509192915050565b634e487b7160e01b600052604160045260246000fd5b600060208284031215610eb057600080fd5b813567ffffffffffffffff80821115610ec857600080fd5b818401915084601f830112610edc57600080fd5b813581811115610eee57610eee610e88565b604051601f8201601f19908116603f01168101908382118183101715610f1657610f16610e88565b81604052828152876020848701011115610f2f57600080fd5b826020860160208301376000928101602001929092525095945050505050565b600060208284031215610f6157600080fd5b5035919050565b6000815180845260005b81811015610f8e57602081850181015186830182015201610f72565b506000602082860101526020601f19601f83011685010191505092915050565b6001600160a01b0385168152608060208201819052600090610fd290830186610f68565b9315156040830152506060015292915050565b803561ffff81168114610aac57600080fd5b803560ff81168114610aac57600080fd5b600080600080600060a0868803121561102057600080fd5b61102986610fe5565b945061103760208701610ff7565b935061104560408701610ff7565b925061105360608701610ff7565b915061106160808701610ff7565b90509295509295909350565b6000806000806080858703121561108357600080fd5b61108c85610fe5565b935061109a60208601610ff7565b92506110a860408601610ff7565b91506110b660608601610ff7565b905092959194509250565b6000806000606084860312156110d657600080fd5b6110df84610fe5565b92506110ed60208501610ff7565b91506110fb60408501610ff7565b90509250925092565b60008060008060008060c0878903121561111d57600080fd5b61112687610fe5565b955061113460208801610ff7565b945061114260408801610ff7565b935061115060608801610ff7565b925061115e60808801610ff7565b915061116c60a08801610ff7565b90509295509295509295565b6000806040838503121561118b57600080fd5b823591506020830135600281106111a157600080fd5b809150509250929050565b6000602082840312156111be57600080fd5b6111c782610fe5565b9392505050565b600080604083850312156111e157600080fd5b6111ea83610ff7565b91506111f860208401610fe5565b90509250929050565b600181811c9082168061121557607f821691505b60208210810361123557634e487b7160e01b600052602260045260246000fd5b50919050565b601f82111561128557600081815260208120601f850160051c810160208610156112625750805b601f850160051c820191505b818110156112815782815560010161126e565b5050505b505050565b815167ffffffffffffffff8111156112a4576112a4610e88565b6112b8816112b28454611201565b8461123b565b602080601f8311600181146112ed57600084156112d55750858301515b600019600386901b1c1916600185901b178555611281565b600085815260208120601f198616915b8281101561131c578886015182559484019460019091019084016112fd565b508582101561133a5787850151600019600388901b60f8161c191681555b5050505050600190811b01905550565b634e487b7160e01b600052601160045260246000fd5b8082018082111561054e5761054e61134a565b8181038181111561054e5761054e61134a565b6000600182016113985761139861134a565b5060010190565b6001600160a01b03841681526060602082018190526000906113c390830185610f68565b9050826040830152949350505050565b634e487b7160e01b600052601260045260246000fd5b6000826113f8576113f86113d3565b500490565b60008261140c5761140c6113d3565b500690565b634e487b7160e01b600052602160045260246000fd5b600061ffff80831681810361143e5761143e61134a565b6001019392505050565b634e487b7160e01b600052603260045260246000fd5b61ffff8281168282160390808211156114795761147961134a565b5092915050565b600081600019048311821515161561149a5761149a61134a565b500290565b60ff828116828216039081111561054e5761054e61134a565b6001600160a01b038316815260408101600283106114e657634e487b7160e01b600052602160045260246000fd5b8260208301529392505050565b600061ffff80841680611508576115086113d3565b92169190910692915050565b600060ff821660ff810361152a5761152a61134a565b6001019291505056fea2646970667358221220b4c1812470e497f02cca6fafcc8558e97ba095bba6232a30e0e34d209f27fd0764736f6c63430008100033",
    "linkReferences": {}
  },
  "methodIdentifiers": {
    "changeEndVoting(uint256)": "d10213c1",
    "compileVotes(uint256)": "5c1d671b",
    "getDay(uint256)": "65c72840",
    "getDaysInMonth(uint8,uint16)": "b238ad0e",
    "getHour(uint256)": "3e239e1a",
    "getMinute(uint256)": "fa93f883",
    "getMonth(uint256)": "a324ad24",
    "getProposalDetails(uint256)": "3b4d01a7",
    "getSecond(uint256)": "8aa001fc",
    "getWeekday(uint256)": "4ac1ad78",
    "getYear(uint256)": "92d66313",
    "isLeapYear(uint16)": "a6f0e577",
    "leapYearsBefore(uint256)": "b1999937",
    "submitProposal(string)": "373d6d5e",
    "toTimestamp(uint16,uint8,uint8)": "8c8d98a0",
    "toTimestamp(uint16,uint8,uint8,uint8)": "7f791833",
    "toTimestamp(uint16,uint8,uint8,uint8,uint8)": "62ba9687",
    "toTimestamp(uint16,uint8,uint8,uint8,uint8,uint8)": "9054bdec",
    "vote(uint256,uint8)": "943e8216",
    "voteCompleted(uint256)": "960ea4ed"
  },
  "id": 16
}